:020000040800F2
:1000000008C20120590200080B3A00087D020008CE
:10001000093A0008050D00085941000800000000D9
:10002000000000000000000000000000A101000826
:10003000E30D000800000000F5010008413A000847
:1000400073020008730200087302000873020008BC
:1000500073020008730200082511000873020008EB
:10006000730200087302000873020008730200089C
:10007000730200087302000873020008730200088C
:10008000730200087302000873020008730200087C
:10009000730200087302000873020008730200086C
:1000A000730200087302000873020008730200085C
:1000B000730200087302000873020008730200084C
:1000C000730200087302000873020008730200083C
:1000D00073020008714000087302000873020008F0
:1000E0002B11000873020008730200087302000855
:1000F000730200087302000873020008730200080C
:1001000073020008730200087302000873020008FB
:1001100073020008730200087302000873020008EB
:1001200073020008730200087302000873020008DB
:1001300073020008010F0008730200087302000830
:1001400073020008730200087302000873020008BB
:10015000090D00087302000873020008730200080A
:10016000730200087302000873020008730200089B
:100170007302000873020008730200080000000008
:100180007302000873020008DFF810D000F03AFA9A
:1001900000480047918C0008AFF3008008C201209E
:1001A0002A4B19680868B0E8F04F80F30988BFF35C
:1001B0006F8F4FF0000080F311887047000000003F
:1001C00006480068006880F3088862B661B6BFF32D
:1001D0004F8FBFF36F8F00DF00BF00BF08ED00E05F
:1001E000DFF80C00016841F470010160704700BF46
:1001F00088ED00E0EFF30980BFF36F8F134B1A68AF
:100200001EF0100F08BF20ED108A20E9F04F10609B
:1002100008B44FF0500080F31188BFF34F8FBFF345
:100220006F8F10F0E5FE4FF0000080F3118808BCDE
:1002300019680868B0E8F04F1EF0100F08BFB0EC66
:10024000108A80F30988BFF36F8F70473400002055
:10025000EFF30580704700000648804706480047D6
:10026000FEE7FEE7FEE7FEE7FEE7FEE7FEE7FEE766
:10027000FEE7FEE7293B0008890100087046694651
:1002800004F0DEFBFFF7FEFF2DE9F05F05460020DE
:1002900092469B4688460646814640241BE02846F7
:1002A00041464746224600F05AF953465A46C01A7C
:1002B000914110D311461846224600F041F92D1AFB
:1002C00067EB01084F4622460120002100F038F973
:1002D00017EB00094E41201EA4F10104DFDC484663
:1002E00031462A464346BDE8F09F0000004870476B
:1002F0006021010810B50446FFF7F8FF0068005DB3
:1003000000F0010010BD10B5431A934209D28318C2
:10031000881803E010F8011D03F8011D521EF9D2E0
:1003200010BD40EA01039B0703D009E008C9121F72
:1003300008C0042AFAD203E011F8013B00F8013B9F
:10034000521EF9D210BDD2B201E000F8012B491EB5
:10035000FBD270470022F6E710B513460A46044662
:100360001946FFF7F0FF204610BD10B5044604E023
:100370000B7800F8013B03B1491C521EF8D220460D
:1003800010BD30B504460020034600E05B1C9342DC
:1003900003D2E05CCD5C401BF8D030BD30B50546E3
:1003A0000020034600E05B1C934205D2EC5CC85C75
:1003B000201A01D1002CF6D130BD00000FB400B5D9
:1003C0008DB010A909900B9000914FF0FF300A906A
:1003D00000200C9005480690054807906A4609A839
:1003E0000F9900F0E1F80DB05DF814FBC5050008A9
:1003F000E30500082DE9FF5F1D464FF0FF3BD5E9FF
:10040000014691465F464FF00008A9697F1C01989C
:100410008847296A824688470028F6D1BAF1FF3F0B
:100420000CD024F4C064002E19DD600614D5BAF196
:100430002B0F09D0BAF12D0F0ED103E0584604B0AE
:10044000BDE8F09F44F48064A9697F1C0198884747
:10045000761E8246002E02DDBAF1300F03D0B9F1CC
:10046000000F26D032E0A969761E44F400747F1C88
:10047000019888478246002E05DDBAF1780F06D034
:10048000BAF1580F03D0B9F1000F10D01EE0B9F146
:10049000000F02D0B9F1100F18D1A969761E24F40B
:1004A00000747F1C019888478246102002E00820D3
:1004B00000E00A20814609E008FB0908A969761EC8
:1004C00044F400747F1C019888478246002E05DDA5
:1004D0004946504600F053F80028EDDAE9690198E2
:1004E0008847A00502D46FF00100A8E7E00725D1F6
:1004F000600613D5600502D5C8F1000000E0404653
:1005000029680A1D2A600968220501D5087015E0CE
:10051000220701D5088011E008600FE02868011D5E
:1005200029600068210502D580F8008006E02107D7
:1005300002D5A0F8008001E0C0F8008038467EE7D0
:10054000202A04DB203A00FA02F100207047914093
:10055000C2F1200320FA03F3194390407047202A88
:1005600004DB203A21FA02F00021704721FA02F35D
:10057000D040C2F1200291400843194670473A2802
:1005800000D2303820F02002412A01D3A2F13700F6
:10059000884201D34FF0FF307047000002681144D9
:1005A0001378016018467047D160044951610449CD
:1005B000116200211161114600F036B89D05000856
:1005C000F5020008426842B1016811F8013B23B10D
:1005D000521EC0E90012184670470121C160881EF2
:1005E000704742685AB1C368016843B983688B4257
:1005F00005D0491E521CC0E90012002070474FF080
:10060000FF307047064C074D06E0E06840F00103FC
:1006100094E8070098471034AC42F6D3FFF7B8FDD2
:10062000282B0108482B01082DE9F34F8BB04FF020
:10063000000801F10C000C464FF0010B46460DF18D
:10064000080A01906269012101989047051E2DD08A
:10065000252D2CD0216A8847C0B1626901210198FB
:100660009047216A88470028F7D1411E62690198A6
:10067000904700E0761CA1690B988847216A88475B
:100680000028F7D1E1690B988847DBE7A1690B984F
:1006900088470746A84201D1761CD3E7E1690B9849
:1006A00088477F1C02D1B8F1000F6FD047E10027C7
:1006B00062693D463946019890472A2804D162690B
:1006C0000121019890470125DFF888926269012194
:1006D00001989047A0F130010A290AD24F45E5DC84
:1006E00007EB870100EB4107303FDFD445F01005F1
:1006F000ECE7E90601D46FF000476C280AD04C28DB
:1007000014D0682815D06A280DD074281CD07A28F7
:100710001AD01DE062690121019890476C2802D02F
:1007200045F0040514E045F002050DE045F0200514
:100730000AE06269012101989047682802D045F0DB
:10074000080505E045F400656269012101989047BC
:10075000C4E9015765283DD019DC58287AD00CDC53
:10076000452837D004DC252826D0412831D131E076
:1007700046282FD047282CD12CE05B2877D0612841
:1007800028D063287CD0642823D15AE0D1E06F2898
:1007900048D008DC66281DD067281BD0692821D0E6
:1007A0006E2816D127E0702845D0732868D07528A8
:1007B00047D078280DD14DE0A1690B9888470546B0
:1007C00025283FF469AFE1690B9888476D1C3FF419
:1007D0006AAFB4E023466A466FF001000B99AFF3AD
:1007E00000809FE045F040006060A80723464FF07E
:1007F000000236D43EE0E8077FF447AF2068011DD1
:1008000021600068290501D506701BE7290701D57D
:10081000068017E7A90703D5F117C0E9006111E7C2
:1008200006600FE745F040006060A80723464FF0E0
:10083000080216D41EE040F60E0125EA01006060B1
:1008400016E045F040006060A80723464FF00A021A
:1008500007D40FE045F040006060A80708D52346A4
:1008600010226FF001000B99AFF300805AE007E00F
:10087000234610226FF001000B99FFF7BBFD51E0FA
:100880004FF000094F464B46632802D05B2807D043
:1008900041E02079C00601D40120A06001273AE0A0
:1008A00062690121019890475E2805D14FF0010946
:1008B0006269494601989047216939B900210A4681
:1008C000534643F82120491C0829FADBB0B32169BB
:1008D00069B9C11700EBD16253110AEB830122F011
:1008E0001F02821A01200B68904003430B6062696B
:1008F0000121019890475D28E8D1B9F1000F09D096
:100900000020514651F82020D24341F82020401CBD
:100910000828F7DB02AB224600976FF001000B9925
:10092000AFF3008000280CDA401C08D1BBF1000FA7
:1009300005D04FF0FF300DB0BDE8F08FFFE7404627
:10094000F9E7E90701D108F1010806444FF0000B6F
:1009500078E60000CCCCCC0C30B58C1810F8012B0C
:1009600012F00F0301D110F8013B120906D110F863
:10097000012B03E010F8015B01F8015B5B1EF9D16C
:1009800001E001F8013B521EFBD1A142E6D3002059
:1009900030BD00001CB503F0F1F803F063FF03F075
:1009A000DFFF25A003F0DAFB31A003F0D7FB0FF047
:1009B0006FFF3F480121CDE900104A0200233DA10D
:1009C000404810F05FFF3A4C241F012809D13E48EF
:1009D000012300901A464FF47A713CA011F0AAF955
:1009E000A060A06848B111F003F802460020034659
:1009F00000900121A06811F0F1F938A003F0AEFBDE
:100A00003DA003F0ABFB44A003F0A8FB4DA003F016
:100A1000A5FB57A003F0A2FB64A003F09FFB73A00B
:100A200003F09CFB79A003F099FB206810F0E6F836
:100A3000BDE81C400FF066BFCDF8C2E7C1ACBDD326
:100A4000C4A3D0CDA3BA0920B5E7C4D43C2D2DCD85
:100A5000F8CFDF2D2D3EC2B7D3C93C2D2DCDF8CF19
:100A6000DF2D2D3E492F4FC4A3BFE90A000000002F
:100A7000CAB9D3C3544350D0ADD2E9B4ABCAE4CA67
:100A8000FDBEDDA3ACB5E7C4D4D7F7CEAA5443501E
:100A900020536572766572A3AC492F4FC4A3BFE99A
:100AA000D7F7CEAA54435020436C69656E740A0090
:100AB00014000020493263656570726F6D5F546188
:100AC000736B0000DD3700082D3A00084175746F24
:100AD00052656C6F616454696D657200492F4FC433
:100AE000A3BFE9C6F4B6AFCDEAB3C921D5FDD4DAC8
:100AF000D4CBD0D0A3A10A00B1BE492F4FC4A3BF0D
:100B0000E9BEDFD3D032B8F6CAE4C8EB33B8F6CAD0
:100B1000E4B3F60A00000000CAE4C8EBC4A3BFE9CE
:100B2000D6A7B3D6CAC2BCFEB4A5B7A2D7D4B6AFB7
:100B3000CFF2C9CFCEBBBBFAB7A2CBCDD7B4CCAC2A
:100B40000A000000CAE4C8EBC4A3BFE9D6A7B3D625
:100B5000C3BFC3EBD7D4B6AFCFF2C9CFCEBBBBFABE
:100B6000B7A2CBCDD2BBB4CED7B4CCAC0A00000078
:100B7000C9CFCEBBBBFABFC9D2D4CDA8B9FDCDF881
:100B8000C2E7B7A2CBCDC3FCC1EEA3BAA1B07175C9
:100B9000657279A1B1C0B4B2E9D1AFD2BBB4CECA4B
:100BA000E4C8EBD7B4CCAC0A00000000BFC9CDA8A4
:100BB000B9FDCDF8C2E7B7A2CBCDC3FCC1EEA3BA55
:100BC000A1B04C454431A1B1A1A2A1B04C454432E1
:100BD000A1B1A1A2A1B04C454433A1B1C0B4BFD8CA
:100BE000D6C6CAE4B3F6D7B4CCAC0A00BFC9CDA808
:100BF000B9FDB4AEBFDAC5E4D6C3C9CFCEBBBBFA2C
:100C0000B5C44950B6CBBFDA0A000000CABEC0FD69
:100C10003139322E3136382E322E3138373A35309E
:100C200030300A0010B501F007FE00F0AFFA02F014
:100C30001DFF02F0ABFE02F05DFE02F031FE03F09C
:100C40006FFA02F000FB02F051FBBDE8104002A277
:100C500003A105A004F026B856302E312E30000036
:100C600056312E302E3000004A49454A49452D461E
:100C7000343037001CB51D4800F0E4FC00F05AFA8F
:100C80001B48016841F00101016002208DF800005D
:100C900000218DF801108DF802108DF803108DF8E9
:100CA00004108DF805101148124A026001224260BA
:100CB0000182C0F814D08261C161D105016249127C
:100CC0008160C910C16000F061FD044608230A4A32
:100CD0000A49064800F079FC094A0823A2F5007188
:100CE000024800F03BFC20461CBD000060060020CE
:100CF000009002400080024048380020A8070020F1
:100D0000A8080020FEE700000148406B00F086BA0A
:100D1000200200200168CAB2103A1823B2FBF3F295
:100D2000064B9B5CC3656FF30901032A02D9091DB9
:100D3000816500E08165806D70470000941E0108A8
:100D400010B5014600208A6A8B694FF0C074002BF1
:100D50000ED0B3F5005F1AD062B3012A2AD0022A5E
:100D600028D0032A03D1C96AC90100D5012010BDCA
:100D70001AB1012A06D0022AF9D1C96AC901F6D5E9
:100D8000012010BDC96AA142FBD1012010BD52B1A2
:100D9000012A0AD0022A06D0032AF7D1C96AA14241
:100DA000F4D1012010BD012010BDC96AC901FBD5D5
:100DB000012010BD012010BD30B50468256825F460
:100DC00080252560046863608368402B04D0036835
:100DD00099600068C26030BD03689A600068C160B5
:100DE00030BD704770B586B000252448016841F0D9
:100DF00001010160016801F001010091016841F009
:100E000001010160006800F0010000901B481430EF
:100E1000016841F010010160006800F010000090CE
:100E20004FF40070019002200290012003900320F3
:100E3000049007240594124E01A9304601F06EF883
:100E400031150191059401A9304601F067F80E4C67
:100E50000C4820604FF4E1306060A560E5602561DA
:100E6000A5610C206061204602F09DF82068C168F1
:100E700041F01001C16006B070BD00003038024082
:100E8000000002400010014020020020006800F530
:100E90008050816941F0020181617047006800F56E
:100EA0008050816941F400518161704708B507495C
:100EB0004FF4FA520968B1FBF2F14143009100BFCF
:100EC0000098411E0091FAD208BD000000000020E9
:100ED00038B50446206800F58050816941F48011DE
:100EE0008161206800F58050806900900120FFF743
:100EF000DDFF2068009900F58050816138BD000059
:100F000010B55020EFF3118480F31188BFF34F8F99
:100F1000BFF36F8F024800F0F8FB84F3118810BD17
:100F2000600600201079537940EA032307480844FB
:100F300003641178D37841EA0361937852781B04F3
:100F400043EA0222114341647047000000800240DE
:100F50002DE9F041AEB00446002904D04FF4006002
:100F6000E060C000A06000251195129513951495BE
:100F700015951695E06900287DD017954FF40070FF
:100F8000189019951A951B951C951D9540271E972D
:100F90001F95209521952295239524952595269595
:100FA00080262796289529952A952B952C952D9561
:100FB0002068026845490A40D4E902131943179B87
:100FC000194341F40071114301602068D0F800809A
:100FD000012000F0B1FA2068C0F800802068476066
:100FE00020684768012000F0A7FA20684760206861
:100FF00085602068C560206881694FF641721140A4
:1010000041F08001816120688769012000F094FA35
:10101000206887612068C5612068C769012000F0E9
:101020008BFA2068C7610195B00402900395011105
:1010300004910595069507950895042109910A9054
:1010400040120B9080010C9040120D900E960F955F
:101050001095206800F5805081691D4A11401D4A95
:101060000A438261206800F580508569012000F004
:1010700063FA206800E016E000F580508561206882
:10108000154900F580500160206800F58050056822
:10109000012000F051FA206800F580500560A06939
:1010A000012804D00AE04FF48060179066E72068BA
:1010B00000F58050C169094A1143C16162692EB0CF
:1010C0002046BDE8F0410021FFF72CBF0F8120FF33
:1010D000233FDEF8040020028020C102400001000E
:1010E00038B504462068016841F0040101602068B9
:1010F000006800900120FFF7D9FE21680098086081
:1011000038BD38B504462068016841F00801016027
:101110002068006800900120FFF7C8FE2168009851
:10112000086038BD012000F0EDBE4FF4005000F023
:10113000E9BE000010B586B01248016841F4807124
:101140000160006800F4807000900120029003901C
:101150000220049001900C4C01A9204600F0DEFE14
:1011600000220221204600F0C2FF052000F0E4F931
:1011700001220221204600F0BAFF052000F0DCF930
:1011800006B010BD303802400020024008B51948B2
:10119000016841F080010160016801F08001009167
:1011A000016841F004010160016801F0040100914F
:1011B000016841F001010160016801F00101009145
:1011C000016841F002010160016801F00201009133
:1011D000016841F040010160016801F040010091A7
:1011E000016841F480710160006800F48070009033
:1011F00008BD00003038024090F83510022903D0B5
:101200008021416501207047052180F83510006874
:10121000016821F001010160002070472DE9F843C9
:1012200004464FF00009CDF800906F484FF4165176
:101230000068B0FBF1F7A56D2E6894F85C000822F9
:1012400002FA00F1314210D02068016849070CD53C
:10125000016821F00401016094F85C0002FA00F1D9
:10126000A960606D40F00100606594F85C104FF07B
:10127000010808FA01F0304208D0216849690906DE
:1012800004D5A860606D40F00200606594F85C10C1
:1012900004208840304208D021680968890704D5B5
:1012A000A860606D40F00400606594F85C10102048
:1012B0008840304220D02168096809071CD5A86001
:1012C0002068016849030CD50068000304D4216C30
:1012D00091B1204688470FE0A16C69B1204688474C
:1012E0000AE00168C90503D4016821F00801016022
:1012F000216C09B12046884794F85C102020884072
:1013000030424CD021680968C90648D5A86094F8D5
:10131000350005280BD020680168490330D50068E6
:10132000000328D4616C51B32046884737E0206819
:10133000016821F0160101602068416921F08001F7
:101340004161206C08B9A06C20B12068016821F0CF
:101350000801016094F85C103F208840A86084F880
:10136000349084F83580216D00293BD001B02046AF
:10137000BDE8F0430847E16B09B1204688470EE01D
:101380000168C90507D4016821F01001016084F8E3
:10139000349084F83580E16B09B120468847606D50
:1013A00000281FD0606DC00714D0052084F83500D8
:1013B0002068016821F0010101600098401C009044
:1013C000B84203D820680068C007F6D184F834908A
:1013D00084F83580E16C002904D001B02046BDE8D6
:1013E000F0430847BDE8F883000000202DE9F041F4
:1013F000044600F089FE05465CB1002684F834609E
:10140000022084F835002068016821F001010160A4
:101410000DE00120BDE8F08100F076FE401B0528BC
:1014200005D920206065032084F83500F2E72068A4
:101430000068C007F0D121680A6820480240D4E95A
:1014400001031843D4E903352B4318436369184358
:10145000A3691843E3691843236A18431043626A77
:10146000042A03D1D4E90B231A43104308602068EF
:10147000406920F00700656A2946054301270429D1
:101480000DD1A06A0543E06A48B12046FFF758FC39
:1014900028B14020606584F835700120BAE72068E3
:1014A00045612046FFF736FC94F85C203F219140CF
:1014B0008160666584F835700020ABE73F8010F0EE
:1014C0002DE9F04104460025A66D94F8340001286A
:1014D0000DD0012084F8340094F835700020012FDD
:1014E00007D084F8340002252846BDE8F0810220A8
:1014F000FBE7022784F8357060652046FFF75CFC47
:1015000094F85C103F208840B0602068016841F08A
:10151000160101602068416941F080014161206C41
:1015200020B12068016841F008010160206801686D
:1015300041F001010160D7E770B5044600F0E4FD19
:101540000546601C02D004480078044400F0DCFD2D
:10155000401BA042FAD370BD04000020F0B5002467
:1015600090F84550012D09D0012780F845700225DB
:1015700080F84450816244F2F45C19E00220F0BD2E
:1015800001EB44154FF000462E60C5F804C0C4EBD3
:10159000C41606EB460602EB8606AE6086695E1E42
:1015A000B44203D205F12006EE6000E0E960641C5D
:1015B0009C42E5D3026802F58052D16080F8447005
:1015C000002180F845100020F0BD2DE9F0430025F2
:1015D00090F84540012C0BD04FF0010C80F845C02D
:1015E000022480F84440C1624FF480185F1E1CE062
:1015F0000220BDE8F08301EB4514C4F80080C5EB80
:10160000C51606EB460602EB8606A660C66926B935
:10161000266846F44009C4F80090BD4203D204F1A4
:101620002006E66000E0E1606D1C9D42E3D30268A5
:1016300002F58052116180F844C0002180F8451005
:101640000020D6E710B50446022084F84400204666
:1016500000F0B8F9002004F8440F607010BD0000DD
:1016600010B504A002F07AFDBDE8104004A002F01D
:1016700075BD00000D0A5B4552525D203E3E2000C4
:10168000657468206572720A0000000010B590F859
:101690004510012913D0012380F84530022180F83C
:1016A0004410816A0A680024002A29DB0A68D205EE
:1016B00018D5826B521C8263012A02D002E00220FC
:1016C00010BD01632830C1600A68C2F30D42121FC9
:1016D0004261826892688261C968016003774477D9
:1016E000002010BD0A68920505D501634463836339
:1016F000C968816204E0826B521C8263C96881629E
:1017000000F8443F4470012010BD70B504462068C5
:1017100000F5805041694FF0000649064FF0010581
:101720000CD5204600F026FA2068402100F58050B4
:10173000416184F8445084F845600DE04069C00779
:101740000AD0204600F0D9FA206800F580504561A3
:1017500084F8445084F8456020684FF4803100F5E7
:1017600080504161206800F58050406900040CD52C
:101770002046FFF775FF20684FF4004100F58050C8
:10178000416184F8445084F8456070BD2DE9FC4700
:1017900004464FF00008CDF80480C146002C03D069
:1017A00094F8440018B107E00120BDE8FC8784F8F4
:1017B0004580204600F038F97848016841F48041BE
:1017C0000160006800F4804000907548016821F4D1
:1017D000000101600168226A11430160206800F580
:1017E0008050016841F00101016000F08DFC054668
:1017F0004FF4FA760AE000F087FC401BB04205D9AE
:10180000032084F8440084F84580CEE7206800F582
:1018100080500068C007EED12068006920F01C05E8
:1018200001F022F95F49604A0144914202D245F039
:10183000080516E05D495E4A0144914202D245F036
:101840000C050EE05B495C4A0144914209D35B49B7
:1018500008445B49884202D245F0040501E045F0A6
:101860001005206805614FF400420021204600F079
:1018700045FA012538B101212046FFF769FB84F8BC
:101880004450012091E70520FFF756FE6068E0B361
:1018900000F03AFC074641F2883601AA01212046B1
:1018A00000F026F900F030FCC01BB04209D901213C
:1018B0002046FFF74DFB84F8445084F84580032010
:1018C00073E701984007E8D54FF480520021204685
:1018D00000F014FA38B101212046FFF739FB84F8F3
:1018E0004450012061E700F00FFC074601AA0121E6
:1018F000204600F0FDF800F007FCC01BB0420BD9F9
:1019000001212046FFF724FB00E028E084F8445042
:1019100084F84580032048E701988006E6D501AAAF
:101920001F21204600F0E4F838B101212046FFF7DE
:101930000FFB84F84450012037E70198C10603D516
:101940004FF40061E16001E0C4F80C80400702D56B
:10195000C4F808801AE04FF48040A06016E0E06808
:101960000021C0F3CF02A068C0F34F00024320461D
:1019700000F0C4F938B101212046FFF7E9FA84F8F4
:101980004450012011E70520FFF7D6FD49462046C7
:10199000FFF7DEFA84F84450002006E7443802409E
:1019A0000438014000D3CEFEC0E1E40040F1E9FD7F
:1019B00040787D0100796CFC005A6202001F0AFA2F
:1019C00080F0FA0210B500681249884221D112480D
:1019D000016821F080610160016821F0006101600F
:1019E000016821F00071016032210C4800F0C4F957
:1019F00086210B4800F0C0F90A4C4FF400612046E4
:101A000000F0BAF92046BDE810404FF4C04100F0A4
:101A1000B3B910BD008002403038024000080240D7
:101A200000000240001802402DE9F04186B0006835
:101A30002A4988424ED13220019002240294002586
:101A40000395032604960B27059701A9244800F067
:101A500065FA86200190029403950496059701A9E2
:101A6000204800F05BFAA0020190029403950496CE
:101A70000597DFF8748001A9404600F04FFA700323
:101A80000190029403950496059701A9404600F041
:101A900045FA002206213D2000F012FF3D2000F013
:101AA00004FF1248016841F000710160016801F013
:101AB00000710091016841F080610160016801F0EE
:101AC00080610091016841F000610160006800F0F0
:101AD0000060009006B0BDE8F08100000080024088
:101AE0000008024000000240001802403038024066
:101AF0002DE9F0470446914694F8440082281DD011
:101B0000822084F844002068026902F01C03228AC3
:101B10004FF6FF7505EAC2221A434FF4F86303EA51
:101B20008111114321F0020141F00105056100F02E
:101B3000EBFA064601274FF480380FE00220BDE89B
:101B4000F08700F0E1FA801B404505D304F8447F9C
:101B5000002060700320F2E720680569E807F0D1F3
:101B60002068406980B2C9F8000084F84470002001
:101B7000E5E7000008B500200090084869460068C5
:101B80000FF0D8FD0098002807D005494FF080508D
:101B90000860BFF34F8FBFF36F8F08BD8001002037
:101BA00004ED00E070B5044694F84500012819D012
:101BB000012584F84550022084F844002046FFF7B0
:101BC000A0FA2046FFF78CFA2046FFF781F920465D
:101BD000FFF764F92046FFF759F904F8445F002045
:101BE000607070BD022070BDF0B5002390F84520F4
:101BF000012A11D0012780F84570022280F8442084
:101C0000002659B1C46A2268002A0CDA122100F8B1
:101C1000441F46700120F0BD0220F0BD00F8447F53
:101C200046700120F0BD40F2F455A9420AD9B1FB3B
:101C3000F5F2B1FBF5FC05FB1C1CBCF1000F02D05A
:101C4000521C00E00122012A44D1226842F0405295
:101C50002260C26AC1F30C015160C16A0A6842F095
:101C600000420A60C16AC968C16235E0C46AD4F83A
:101C700000C02CF0405CC4F800C033B9C46AD4F88A
:101C800000C04CF0805CC4F800C0C46A6560541E9B
:101C9000A34214D1C46AD4F800C04CF0005CC4F86C
:101CA00000C0C2F10104C4EBC41404EB440401EB12
:101CB0008404D0F82CC0C4F30C04CCF80440C46AEB
:101CC000D4F800C04CF0004CC4F800C0C46AE4680A
:101CD000C4625B1C9342C9D3016801F580514A6913
:101CE000520705D504224A61016801F580514E6012
:101CF00000F8447F46700020F0BD70472DE9F041A8
:101D0000044694F84400422820D0422084F844003D
:101D10002068036903F01C03258A4FF6FF7606EA64
:101D2000C5251D434FF4F86303EA8111294341F0AF
:101D3000020141F0010591B241612068056100F0A6
:101D4000E3F9064601274FF480380FE00220BDE892
:101D5000F08100F0D9F9801B404505D304F8447F99
:101D6000002060700320F2E720680569E807F0D1E1
:101D700084F84470EBE700002DE9F04F0023DFF812
:101D80000C814FF0010C0F270CFA03F201EA020458
:101D9000944275D106684FEA4309032505FA09F50F
:101DA000AE430660DE0800EB8609D9F820A05E0786
:101DB0004FEAD66B07FA0BFB2AEA0B0A3E46C9F834
:101DC00020A0D0F8089029EA0509C0F80890D0F8BA
:101DD000049029EA0209C0F80490C268AA43C260CC
:101DE00023F0030202EB0805D5F808284FEA8379AF
:101DF0004FEA197906FA09F606EA020A244A9042DD
:101E000001D1002223E0234A904201D101221EE0A9
:101E1000214A904201D1022219E0204A904201D188
:101E2000032214E01E4A904201D104220FE01D4A11
:101E3000904201D105220AE01B4A904201D10622BC
:101E400005E01A4A904201D1072200E0082202FA76
:101E500009F2524514D1D5F80828B243C5F808282C
:101E6000134A1568A5431560121D1568A543156032
:101E7000121D1568A5431560121D1568A543156050
:101E80005B1C102B80D3BDE8F08F000000300140B8
:101E9000000002400004024000080240000C024022
:101EA000001002400014024000180240001C0240D2
:101EB000003C014038B501461048114C4FF08055A8
:101EC000006801290ED0B1F5005F0AD169460EF015
:101ED00003FF0098002804D02560BFF34F8FBFF3A5
:101EE0006F8F38BD69460EF0F7FE00980028F8D0D5
:101EF0002560BFF34F8FBFF36F8F38BD28000020E0
:101F000004ED00E010B504490A68024202D00860FE
:101F1000FFF7D0FF10BD0000143C01402DE9F84F41
:101F20000022DFF89091DFF88C8109F108094FF069
:101F3000010E4FF00F0C09F1040A0EFA02F60B68BD
:101F40003340B34271D14C68022C01D0122C11D114
:101F5000D40800EB84073D6A5407E40E0CFA04FB36
:101F600025EA0B05D1F810B00BFA04FB4BEA050B80
:101F7000C7F820B0076854000325A540AF4391F887
:101F800004B00BF0030B0BFA04FB4BEA070BC0F891
:101F900000B04F68012F05D0022F03D0112F01D0C0
:101FA000122F11D18768AF43D1F80CB00BFA04FBA4
:101FB0004BEA070BC0F808B04768B7430E79C6F381
:101FC000001696403E434660C668AE438D68A54005
:101FD0003543C5604C68E40065D5374C256845F449
:101FE00080452560246804F480440094334C22F03A
:101FF00003052544D5F808789407260F0CFA06F453
:10200000A7432F4CA04201D1002424E02D4CA04234
:1020100001D101241FE02C4CA04201D102241AE07E
:102020002A4CA04202D1032415E03CE0284CA042F7
:1020300001D104240FE0274CA04201D105240AE07D
:10204000254CA04201D1062405E0244CA04201D138
:10205000072400E00824B4403C43C5F80848D8F8F9
:1020600000409C434D68ED0300D51C43C8F8004078
:10207000104D2D1D2C689C434E68B60300D51C43A3
:102080002C60D9F800409C434D68ED0200D51C43FC
:10209000C9F80040DAF800409C434D68AD0200D515
:1020A0001C43CAF80040521C102AFFF446AFBDE89A
:1020B000F88F0000003C01404438024000300140ED
:1020C000000002400004024000080240000C0240F0
:1020D000001002400014024000180240001C0240A0
:1020E0000069084201D00120704700207047002A93
:1020F00001D081617047090481617047014800681F
:10210000000C7047002004E0014880687047000020
:102110000400002090F83D007047000070B50446B0
:10212000002C04D094F83D00002510B106E00120F9
:1021300070BD84F83C50204600F032FB242084F827
:102140003D002068016821F00101016000F092FC6F
:102150003349B0FBF1F122685160324A636893421F
:1021600001D8491C07E04FF4967359434FF47A7332
:10217000B1FBF3F1491C23681962616891420BD8E5
:102180004900B0FBF1F2C2F30B02042A01D2042091
:1021900019E0B0FBF1F016E0A2689AB301EBC103BD
:1021A00003EB0113B0FBF3F343F480431B0530D082
:1021B0004AB301EBC10202EB0111B0FBF1F040F4B4
:1021C000804040F400402168C861D4E90701084319
:1021D00021680860D4E90310084321688860D4E9C5
:1021E000050108432168C8602068016841F00101C9
:1021F00001602564202084F83D00256384F83E506A
:10220000002070BD00E006E001EB4103B0FBF3F3FA
:10221000CCE70120D7E701EB4101B0FBF1F0D0E7BB
:1022200040420F00A08601002DE9FF4F81B0044617
:102230008B461F460126FFF767FF054694F83D00D1
:10224000202803D0022005B0BDE8F08F1923012219
:102250004F492046009501F0BBF908B10220F2E792
:1022600094F83C00012807D0012084F83C00206845
:102270000168C90702D005E00220E4E7016841F0E7
:10228000010101602068016821F4006101602420DF
:1022900084F83D004FF0000AC4F840A03D48E062D9
:1022A0004FF020092068016841F4807101603B46CD
:1022B00000224FF001112046009501F089F908B184
:1022C0000320C0E721680BF0FE000861FFF71CFF48
:1022D000054620684169C1F340014069C0F3802090
:1022E00094F83D204FF0A00810E027B1FFF70CFF55
:1022F000401BB84201D984F83D8020684169C1F390
:1023000040014069C0F3802094F83D20014301D191
:10231000A02AEAD184F83D9020684169C943890721
:1023200018D42168096841F400710160206841698E
:10233000806900901923012215492046009501F07B
:1023400047F908B103207EE784F83D9084F83CA06B
:10235000002078E7016841F40071016021686FF4A2
:10236000806048611923012209492046009501F047
:102370002FF908B1032066E730460399761C88429E
:1023800090D384F83D9084F83CA001205BE70000E6
:10239000020010000000FFFF2DE9FF4F83B004464C
:1023A000DDE911988A469346109FFFF7ADFE05467A
:1023B00094F83D00202803D0022007B0BDE8F08F3C
:1023C000192301229B492046009501F001F908B12B
:1023D0000220F2E794F83C00012807D0012084F89D
:1023E0003C0020680168C90702D005E00220E4E74C
:1023F000016841F0010101602068016821F4006179
:102400000160222084F83D00402084F83E00002630
:1024100026646762A4F82A908748E062608D208570
:10242000CDE900855A4651462046069B00F0A4FFA0
:1024300050B1206C042803D084F83C600320BCE732
:1024400084F83C600120B8E7208D48B1012810D005
:1024500002281CD02068416980690290774FDDE036
:102460002068416981690291016841F4007101604D
:10247000F4E72068016821F4806101602068416907
:1024800081690291016841F400710160E6E720680A
:10249000016821F4806101602068016841F40061F5
:1024A00001602068416980690290D7E703287DD8E0
:1024B00001280BD0022823D043460022394620466B
:1024C000009501F085F8E8B3032076E72A464146F7
:1024D000204601F001F930B1206C202801D0012004
:1024E0006BE7032069E720680169606A421C626249
:1024F0000170208D401E2085608D401E60858DE01E
:102500004346002239462046009501F061F808B1A3
:10251000032052E72068016841F4007101602068DF
:102520000169606A421C62620170208D401E208534
:10253000608D401E608520680169606A421C62628D
:10254000017000E006E0208D401E2085608D401E59
:10255000608563E02068016821F480610160206883
:102560000169606A421C62620170208D401E2085F4
:10257000608D401E60854346002239462046009506
:1025800001F026F808B1032017E72068016841F43C
:102590000071016020680169606A421C626201701A
:1025A000208D401E2085608D401E00E00DE060857E
:1025B00020680169606A421C62620170208D401EC1
:1025C0002085608D401E608528E02A4641462046D1
:1025D00001F082F830B1206C202801D00120ECE617
:1025E0000320EAE620680169606A421C62620170A9
:1025F000208D401E2085608D401E608520684169C9
:10260000C94349070AD40169606A421C62620170C9
:10261000208D401E2085608D401E6085208D002805
:102620007FF444AF20203C346070A67026700020F8
:10263000C3E60000020010000000FFFF04000100DC
:102640002DE9FF4F83B00446DDE910898A469346A1
:10265000129FFFF759FD054694F83D00202803D04E
:10266000022007B0BDE8F08F192301224A49204615
:10267000009500F0ADFF08B10220F2E794F83C00AD
:10268000012807D0012084F83C0020680168C907B0
:1026900002D005E00220E4E7016841F00101016099
:1026A0002068016821F400610160212084F83D0068
:1026B000402084F83E0000262664C4F82480A4F854
:1026C0002A903648E062608D2085CDE900755A4633
:1026D00051462046069B00F0F1FED0B3206C042842
:1026E00003D084F83C600320BBE784F83C60012001
:1026F000B7E72A463946204601F01FF858B1206C4A
:10270000042801D00320ACE72068016841F400717F
:1027100001600120A5E7606A411C616221680078C0
:102720000861208D401E80B22085618D491E618523
:1027300023685969C94349070BD450B1606A411CE9
:10274000616200781861208D401E2085608D401EDA
:102750006085208D0028CCD12A463946204600F0DD
:1027600011FF58B1206C042801D0032079E72068BC
:10277000016841F400710160012072E71F3454F8D0
:102780001F0C016841F4007101602020A077E677FA
:102790006677002065E70000020010000000FFFFE0
:1027A00030B587B000211E48026842F00202026084
:1027B000026802F002020192026842F00202026024
:1027C000006800F00200019015481030026842F4E1
:1027D00000120260006800F4001001904FF4807055
:1027E0000290122003900491022005900424069484
:1027F0000C4D02A92846FFF791FBE10102910694D6
:1028000002A92846FFF78AFB05481038016841F401
:1028100000110160016821F40011016007B030BDB2
:1028200030380240000402400248816802781144B6
:10283000816070470400002010B50948016841F428
:1028400000710160016841F480610160032000F0C3
:1028500057F80F2000F006F800F026F8002010BD11
:10286000003C024070B504460D4D4FF47A71287853
:10287000B1FBF0F00B490968B1FBF0F000F026FB6A
:1028800008B1012070BD102C07D200222146501E35
:1028900000F016F86C60002070BD012070BD0000D3
:1028A0000400002000000020704700F01F020121FA
:1028B00091404009800000F1E020C0F8001170470D
:1028C000F0B40D460D4B1B68C3F30223C3F107049C
:1028D000042C00D90424191D072901D2002300E08B
:1028E000DB1E012606FA04F1491E294099409E404C
:1028F000761E16403143F0BC01F088B80CED00E0C4
:1029000000F00701054A10684FF6FF03184040EA3F
:102910000120034908431060704700000CED00E0FF
:102920000000FA052DE9F04704460D46002C13D0AF
:10293000DFF82491D9F80000EFB200F00F00A842B0
:102940000CD289F80070D9F8000000F00F00A842FE
:1029500004D00120BDE8F0870120FBE720683F4E4E
:10296000810712D5400703D5306840F4E05030604D
:102970002078000703D5306840F46040306030684C
:10298000A16820F0F000084330602078C00731D003
:10299000324960680839012808D002280BD0032882
:1029A00009D0096889070BD40120D3E70968890396
:1029B00006D40120CEE70968890101D40120C9E7C6
:1029C000316821F0030101433160FFF79DFB804630
:1029D00041F2883A07E0FFF797FBA0EB080050456B
:1029E00001D90320B6E73068616800F00C00B0EB55
:1029F000810FF0D1D9F8000000F00F00A84209D9EA
:102A000089F80070D9F8000000F00F00A84201D04A
:102A100001209FE72078400705D53068E16820F461
:102A2000E050084330602078000706D530682169FF
:102A300020F4604040EAC100306000F03BF83168AB
:102A4000074AC1F30311515CC840064908600F20D2
:102A5000FFF708FF00207DE7003C024008380240F5
:102A60007C1E01080000002001480068704700003B
:102A70000000002000B5FFF7F7FF04490968044A89
:102A8000C1F38221515CC84000BD000008380240FB
:102A90008C1E010800B5FFF7E7FF04490968044AE6
:102AA000C1F34231515CC84000BD0000083802400B
:102AB0008C1E010810B51748006810F00C0116486C
:102AC00016D0164B042912D0082911D1114C241FFD
:102AD000216801F03F02216849020AD52068C0F34D
:102AE0008810A0FB03010023FDF7CEFB09E0184688
:102AF00010BD21680023C1F38811A1FB0001FDF77F
:102B0000C3FB2168C1F30141491C4900B0FBF1F04E
:102B100010BD0000083802400024F40040787D0118
:102B20002DE9F84F0446002C10D02078DC4DC0076A
:102B300057D0DB4808300168C1F3810101290DD06D
:102B40000068C0F38100022803D00EE00120BDE838
:102B5000F88FD348001D0068400206D5286880031E
:102B60003FD5606870BB0120F1E76068B0F5803F39
:102B700010D0B0F5A02F12D0286820F48030286043
:102B8000286820F4802028606068E0B1FFF7BCFA74
:102B9000064614E0286840F480302860F4E728688E
:102BA00040F480202860286840F480302860EBE7FB
:102BB000FFF7AAFA801B642801D90320C7E7286819
:102BC0008003F5D50DE0FFF79FFA064606E0FFF714
:102BD0009BFA801B642801D90320B8E7286880038A
:102BE000F5D42078AF4F80074FF0000849D5AC48A6
:102BF0000830016811F00C0F09D00068C0F38100A3
:102C0000022814D1A648001D006840020FD428688D
:102C1000800704D5E068012801D0012097E72868E3
:102C2000216920F0F80040EAC100286029E0E0684E
:102C3000B8B101203860FFF767FA064606E0FFF7F3
:102C400063FA801B022801D9032080E728688007E7
:102C5000F5D52868216920F0F80040EAC100286015
:102C60000FE0C7F80080FFF74FFA064606E0FFF7CF
:102C70004BFA801B022801D9032068E728688007E7
:102C8000F5D42078000729D5DFF8149286486169C9
:102C900009F1740989B101210160FFF735FA06468F
:102CA00006E0FFF731FA801B022801D903204EE726
:102CB000D9F800008007F4D510E0C0F80080FFF7D5
:102CC00023FA064606E0FFF71FFA801B022801D907
:102CD00003203CE7D9F800008007F4D420784007AF
:102CE00072D50026DFF8B8A10AF1400ADAF8000030
:102CF000C0000BD4DAF8000040F08050CAF80000A1
:102D0000DAF8000000F0805000900126DFF89CB156
:102D1000DBF80000C00515D4DBF8000040F480703B
:102D2000CBF80000FFF7F0F9814607E0FFF7ECF978
:102D3000A0EB0900022801D9032008E7DBF8000016
:102D4000C005F3D5DFF858B1A0680BF1700B01286E
:102D500013D0052818D0DBF8000020F00100CBF8D4
:102D60000000DBF8000020F00400CBF80000A068B1
:102D700030B3FFF7C9F981461DE0DBF8000040F0F1
:102D80000100CBF80000F2E7DBF8000040F004009F
:102D9000CBF80000DBF8000040F00100CBF80000A9
:102DA000E5E7FFF7B1F9A0EB090141F28830814274
:102DB00001D90320CBE6DBF800008007F1D512E053
:102DC000FFF7A2F981460AE015E0FFF79DF9A0EBB5
:102DD000090141F28830814201D90320B7E6DBF8CE
:102DE00000008007F1D4012E05D1DAF8000020F0B0
:102DF0008050CAF80000A069C0B3294908310968A9
:102E0000C1F38101022949D0022805D0C7F86080AA
:102E1000FFF77AF904463CE0C7F86080FFF774F9E1
:102E2000064606E0FFF770F9801B022801D903204F
:102E30008DE628688001F5D4D4E907010843616A6A
:102E4000A26A4FF0FF33890103EB520241EA0241CB
:102E5000084394F82C1040EA01611148001D0160FC
:102E600001203866FFF750F9044607E014E0FFF749
:102E70004BF9001B022801D9032068E6286880016D
:102E8000F5D509E0FFF740F9001B022801D903201E
:102E90005DE628688001F5D4002058E6012056E65A
:102EA0000038024000004742800E47420070004058
:102EB0004FF0E021042804D0086920F004000861E4
:102EC0007047086940F004000861704710B5401E63
:102ED000B0F1807F01D3012010BD4FF0E02460618C
:102EE0000F21601700F092FD0020A06107202061F3
:102EF000002010BD08B50D49884215D10C4869461F
:102F000000680DF0E9FE009838B10A494FF0805092
:102F10000860BFF34F8FBFF36F8F04494FF4806297
:102F20004031024800F072F808BD00002002002085
:102F30001400002004ED00E010B504462068C168CC
:102F400021F49071C1602068416921F00101416163
:102F5000206841694FF000024B064FF0200116D562
:102F6000436923F040034361606B48B10C4901653C
:102F7000606BFEF741F980B1606B016D88470CE032
:102F8000E28584F83A102046FFF7B4FF05E0E285B9
:102F900084F83A102046FFF7ADFF002010BD000076
:102FA000B53C0008704770B50446002C04D094F876
:102FB0003900002510B106E0012070BD84F83850BA
:102FC000204600F022F8242084F839002068C168E7
:102FD00021F40051C160204600F08EFE2068016996
:102FE00021F4904101612068416921F02A01416189
:102FF0002068C16841F40051C160E563202084F875
:10300000390084F83A00002070BD704737B582B0AF
:103010000446134694F83A00202802D0022005B056
:1030200030BD039AA2B39BB394F83800012832D084
:10303000012084F83800A262A3850025E5632220E0
:1030400084F83A00616B1548C863616B14480864E2
:10305000616B1448C864606B05652168606B091D6D
:10306000FEF72EFA206801684168019184F8385013
:10307000C16841F48071C1602068416941F001017B
:1030800041612068416941F0400141610020C6E78B
:10309000FFE70120C3E70220C1E700006F3C000802
:1030A000AB3C0008253C0008704770472DE9F84309
:1030B00004460D4691461E4694F83900202802D059
:1030C0000220BDE8F883B5B1B9F1000F13D094F830
:1030D0003800012811D0012084F838000027E76368
:1030E000212084F83900FFF70FF88046A4F82490D7
:1030F000A4F826902DE00120E3E70220E1E7E08C30
:10310000401EE084A068B0F5805F09D043460022ED
:1031100080212046009600F079FFB0B10320D0E76F
:103120004346002280212046009600F06FFF08B140
:103130000320C6E728882168C0F30800486020699A
:1031400008B16D1C05E0AD1C03E0216815F8010B0A
:103150004860E08C0028D2D143460022402120461E
:10316000009600F053FF08B10320AAE7202038346E
:10317000607027700020A4E70EB54FF47A738DE8D5
:103180000D000A460123A0210148FFF705F90EBDF5
:10319000E86700202DE9F04105460C4604F00700E1
:1031A000C0F10807C2F3C70602F0070800280FD0D5
:1031B0005EB3D01BC0F3C70600F00708A7B33A46BA
:1031C0002146284600F042F8E019C4B23D442BE005
:1031D00076B9424621462846BDE8F04100F036B8AF
:1031E00008222146284600F031F80834E4B20835B8
:1031F000761EF6B2F4D2B8F1000F22D04246214634
:103200002846BDE8F04100F021B842462146284654
:10321000BDE8F04100F01AB808222146284600F027
:1032200015F80834E4B20835761EF6B2F4D2B8F1D7
:10323000000F06D0424621462846BDE8F04100F086
:1032400005B8BDE8F08100F039B800003EB5642350
:103250008DE80D000A460123A0210D48FFF7F0F983
:1032600005460B48FEF756FF2028FAD14FF4967416
:1032700022461346A0210648FEF7D6FF0328F7D0C2
:103280000348FEF747FF2028FAD128463EBD00003C
:10329000E867002001684A69D24352050CD46FF4F4
:1032A00080624A61042130300161002101602022E6
:1032B0004273017301207047002070470948084994
:1032C0000160091401610849416000214161816088
:1032D000C16101620A22C2608161FEF71FBF000066
:1032E00000540040E8670020801A06000EB5142242
:1032F00000210D48FFF740FF0D490E4ACDE900219E
:103300000A4802900C4B0D4A0DA10748FDF756F8EC
:10331000052804D00E4800F021FF00200EBD0DA0AE
:1033200000F01CFF01200EBD3C680020240000209E
:1033300022000020200000201E0000201C00002091
:1033400025642E25642E25642E25643A256400000C
:1033500064210108B4D3454550524F4DD6D0B6C173
:10336000C8A14950B6CBBFDAC5E4D6C3D0C5CFA2F9
:10337000B3C9B9A6A3A10A002DE9F84F0446DDE9B7
:103380000AB60F4690461D462068016841F48061E8
:1033900001602068016841F4807101604FF00119FB
:1033A0005B46002249462046009600F011F910B114
:1033B0000320BDE8F88F216807F0FE000861DFF800
:1033C000F8A033465A465146204600F03BF930B14A
:1033D000206C042801D00320EBE70120E9E72068F6
:1033E00041698069009032465946204600F0A5F9AF
:1033F00058B1206C042801D00320DAE72068016866
:1034000041F4007101600120D3E7284608F0FF0570
:1034100001280ED021684FEA18200861324659462B
:10342000204600F08AF970B1206C042804D00320F3
:10343000BFE72068056108E02068016841F4007179
:1034400001600120B5E720680561324659462046F3
:1034500000F073F958B1206C042801D00320A8E7CC
:103460002068016841F4007101600120A1E7206833
:10347000016841F4807101605B46002249462046A4
:10348000009600F0A5F808B1032092E72168F8B291
:1034900040F00100086133465A465146204600F08C
:1034A000D1F830B1206C042801D0032081E701203D
:1034B0007FE700207DE70000020001002DE9F843CE
:1034C0000446DDE908970D461646984620680168CF
:1034D00041F4807101604B4600224FF001112046FB
:1034E000009700F075F810B10320BDE8F88321685B
:1034F00005F0FE0008613B464A462149204600F09F
:10350000A1F830B1206C042801D00320EDE70120A0
:10351000EBE720684169806900903A4649462046B9
:1035200000F00BF958B1206C042801D00320DCE72F
:103530002068016841F4007101600120D5E7F5B20F
:10354000B8F1010F0DD02168300A08613A464946AA
:10355000204600F0F2F870B1206C042804D003205B
:10356000C3E72068056108E02068016841F4007144
:1035700001600120B9E7206805610020B5E700007F
:103580000200010070B504460D46164619E02046BB
:10359000FFF780FE08B1012070BD681C11D025B175
:1035A000FEF7B2FD801BA8420BD93034206940F0F1
:1035B00020002061002020602021617320730320FF
:1035C00070BD20684069C0434007E0D4002070BD52
:1035D0002DE9F0470546DDF820A00F4691461E462E
:1035E000C7F3074812E0701C10D02EB1FEF78CFD17
:1035F000A0EB0A00B04209D9002045F8300F202185
:103600006973A87328730320BDE8F087B8F1010F30
:103610000BD02868806927EA00000004000C0FD056
:1036200000244C45DFD00020EEE72868406927EAF7
:1036300000000004000C01D00024F2E70124F0E7B0
:103640000124EEE72DE9F04704460E46154698465C
:103650004FF000094FF0200AC6F3074729E0206821
:103660004069C043400513D42068016841F40071EB
:10367000016021686FF48060486104202064C4F810
:10368000309084F83DA084F83C900120BDE8F0879C
:10369000681C0ED02DB1FEF737FDA0EB0800A84244
:1036A00007D9C4F8309084F83DA084F83C900320FA
:1036B000ECE7012F08D02068806926EA00000004AA
:1036C000000CCCD10020E1E72068406926EA000028
:1036D0000004000CF6D0C2E72DE9F04104460D4687
:1036E000164600274FF0200820E04069C043C0067E
:1036F0000CD421686FF0100048612764276384F8B8
:103700003D8084F83C700120BDE8F08125B1FEF7D2
:10371000FBFC801BA84209D9206C40F020002064EB
:1037200084F83D8084F83C700320EDE7206841690F
:10373000C9434906D9D40020E6E770B504460D46D2
:10374000164619E02046FFF7A5FD08B1012070BD1F
:10375000681C11D025B1FEF7D7FC801BA8420BD9FD
:103760003034206940F020002061002020602021BA
:1037700061732073032070BD20684069C043000658
:10378000E0D4002070BD000010B5044614220021D2
:103790002046FFF7FFFC214602A000F0DFFC0120DD
:1037A00010BD0000B3C9B9A6BDABB4AEBFDACAD56F
:1037B000B5BDB5C44950B6CBBFDAC5E4D6C3257391
:1037C000D0B4C8EB454550524F4DA3A10AC7EBD624
:1037D000D8C6F4D2D4C9FAD0A70A000086B04FF0F8
:1037E000FF3620E005AC04AD009405AB05AA14A19A
:1037F0001748CDE90145FCF7E1FD009405AB05AAAA
:103800000FA11348CDE90145FCF7D8FD052812D0DA
:1038100010A000F0A3FC1AA000F0A0FC4FF48061FF
:103820000B48FCF797FD314601200CF093FF80B266
:103830000028F8D0D6E70648FFF7A6FFEEE700001D
:1038400025642E25642E25642E25643A2564000007
:1038500060020020C4FACAE4C8EBB5C44950B6CB34
:10386000BFDAC5E4D6C3D0C5CFA2B8F1CABDB4EDA6
:10387000CEF3A3ACC7EBD6D8D0C2CAE4C8EB0A00DB
:10388000CABEC0FDB8F1CABDA3BA3139322E313635
:10389000382E322E3138373A353030300A000000B9
:1038A00000B585B0012000900F48019069460F488F
:1038B000FEF734FB4FF40050009069460C48FEF7C9
:1038C0002DFB00220A210620FEF7FAFF0620FEF754
:1038D000ECFF00220A212820FEF7F2FF2820FEF745
:1038E000E4FF05B000BD0000000031100000024000
:1038F0000008024000B587B000211248026842F07B
:1039000001020260026802F001020192026842F0C4
:1039100004020260006800F004000190012002909F
:10392000039104910320059002A90748FEF7F6FAD7
:103930004FF40050029002A90448FEF7EFFA07B0D6
:1039400000BD000030380240000002400008024084
:1039500010B501210B48FEF7C3FB0B4A4FF4005191
:1039600038B11046FEF7BCFB08B10B2010BD0A2091
:1039700010BD1046FEF7B4FB08B1012010BD0020B9
:1039800010BD00000000024000080240F0B587B002
:103990001B48016841F020010160016801F020012D
:1039A0000191016841F020010160016801F02001EE
:1039B0000191016841F020010160006800F02000E1
:1039C000019040240294012003900490032005906C
:1039D0000C4F02A93846FEF7A1FA8025029502A9EC
:1039E0003846FEF79BFAA600029602A93846FEF773
:1039F00095FA0448183004600560066007B0F0BD11
:103A00003038024000140240FEE770470907090EF3
:103A1000002806DA00F00F0000F1E02080F8141D05
:103A2000704700F1E02080F800147047034800233D
:103A30000222194600680DF055BF00002800002042
:103A400010B55020EFF3118480F31188BFF34F8F2E
:103A5000BFF36F8FFEF7E8FE0DF0BCFF012801D029
:103A60000DF08EFB84F3118810BD000030B593B0CB
:103A700000252A48016841F080510160006800F08B
:103A8000805001902648016841F48041016000683F
:103A900000F4804001900120029000040390022471
:103AA00008948001099019200A904FF4A8700B9097
:103AB0000C9407200D9002A8FFF732F800B1FEE742
:103AC0000F200E900F9410954FF4A05011904FF4CA
:103AD0008050129005210EA8FEF724FF00B1FEE7EA
:103AE000FEF7C2FF4FF47A71B0FBF1F0FFF7EEF989
:103AF0000420FFF7DDF900221146501EFEF7E0FE1C
:103B0000FEF7FCFA41F20101884204D10548016840
:103B100041F48071016013B030BD000040380240B4
:103B200000700040003C02401048016841F4700100
:103B300001600F48016841F0010101600C4A002159
:103B40000832116002680B4B1A400260031D0A4ADA
:103B50001A60026822F48022026005480C3001607D
:103B600002495806803908607047000088ED00E07F
:103B700000380240FFFFF6FE103000243EB5002161
:103B800008460CF0D3F81C4D00202860291D086061
:103B9000091D086019491A4ACDE9012105F10803F8
:103BA00000901A1F111F174806F00EF8154806F06E
:103BB0008BF9144C94F82D00400703D5204606F0ED
:103BC000ABF902E00F4806F085F90E4802F060F903
:103BD00002E001200CF0D8FF606829688842F8D024
:103BE0006068010E0091C0F30743C0F30722C1B221
:103BF00005A000F0B3FA3EBD980100202DFE00089C
:103C0000E56C0008A0BC0120B1BEB5D84950B5D8BC
:103C1000D6B7CAC73A25642E25642E25642E25649E
:103C20000A00000070B5846B20684069C0F3C010C2
:103C300094F839100025212904D118B1E5842046D3
:103C400000F050F820684069C0F3801094F83A10F2
:103C5000222904D118B1E585204600F035F8E06B43
:103C600040F01000E0632046FFF79CF970BD10B5EE
:103C70000146886B09680968C90513D40021C1850C
:103C80000168CA6822F48072CA6001684A6922F039
:103C900001024A6101684A6922F040024A6120211A
:103CA00080F83A10FFF700FA10BD10B5806BFFF7EF
:103CB000FCF910BD10B5806B0021C185202180F872
:103CC0003A10FFF717F910BD0168CA6822F4907224
:103CD000CA6001684A6922F001024A61202180F825
:103CE0003A1070470168CA6822F0C002CA602021F9
:103CF00080F83910704700002DE9F0410446206833
:103D0000016921F44052E168114301612068C268F1
:103D100049F20C618A432369A168E5691943636923
:103D20002B4319431143C1602068416921F440715C
:103D3000A2690A434261E069B24AB3496425322666
:103D4000B0F5004F59D02068884201D090427DD113
:103D5000FEF7A0FE00EBC00101EB001061688900D6
:103D6000B0FBF1F7FEF796FE00EBC00101EB00108F
:103D700061688900B0FBF1F0B0FBF5F06FF018015D
:103D8000484307EB800006EB0010B0FBF5F000F0B5
:103D9000F007FEF77FFE00EBC00101EB0010616849
:103DA0008900B0FBF1F0B0FBF5F007EB0017FEF770
:103DB00071FE00EBC00101EB001061688900B0FBEF
:103DC000F1F8FEF767FE00EBC00101EB001061683F
:103DD0008900B0FBF1F0B0FBF5F06FF0180148433B
:103DE00008EB800006EB0010B0FBF5F0216800F056
:103DF0000F0038448860BDE8F0812068884201D017
:103E0000904256D1FEF746FE00EBC00101EB0010D8
:103E100061684900B0FBF1F0B0FBF5F00701FEF777
:103E200039FE00EBC00101EB001061684900B0FBF6
:103E3000F1F8FEF72FFE00EBC00101EB0010616806
:103E40004900B0FBF1F0B0FBF5F000E086E06FF068
:103E50001801484308EB800006EBC000B0FBF5F00A
:103E600000F0F80007EB4007FEF714FE00EBC0017E
:103E700001EB001061684900B0FBF1F8FEF70AFEA3
:103E800000EBC00101EB001061684900B0FBF1F0EC
:103E9000B0FBF5F06FF01801484308EB800006EB2B
:103EA000C000B0FBF5F0216800F0070038448860DE
:103EB000A1E7FEF7DFFD00EBC00101EB0010616838
:103EC0004900B0FBF1F0B0FBF5F00701FEF7D2FDC1
:103ED00000EBC00101EB001061684900B0FBF1F894
:103EE000FEF7C8FD00EBC00101EB0010616849005E
:103EF000B0FBF1F0B0FBF5F06FF01801484308EBB0
:103F0000800006EBC000B0FBF5F000F0F80007EB16
:103F10004007FEF7AFFD00EBC00101EB0010616848
:103F20004900B0FBF1F8FEF7A5FD00EBC00101EB85
:103F3000001061684900B0FBF1F0B0FBF5F06FF0E4
:103F40001801484308EB800006EBC000B0FBF5F019
:103F5000216800F00700384488604CE7FEF78AFDCE
:103F600000EBC00101EB001061688900B0FBF1F7C4
:103F7000FEF780FD00EBC00101EB001061688900D5
:103F8000B0FBF1F0B0FBF5F06FF01801484307EB20
:103F9000800006EB0010B0FBF5F000F0F007FEF734
:103FA00069FD00EBC00101EB001061688900B0FB06
:103FB000F1F0B0FBF5F007EB0017FEF75BFD00EB4F
:103FC000C00101EB001061688900B0FBF1F8FEF759
:103FD00051FD00EBC00101EB001061688900B0FBEE
:103FE000F1F0B0FBF5F06FF01801484308EB8000EA
:103FF00006EB0010B0FBF5F0216800F00F0038442C
:104000008860F8E600140140001001402DE9F041FD
:1040100004460E4617469846069D1DE0681C1BD0B8
:104020002DB1FEF771F8A0EB0800A84214D9206862
:10403000C16821F4D071C1602068416921F001019B
:104040004161202084F8390084F83A00002084F887
:1040500038000320BDE8F0812068006836EA0000DF
:1040600004D00020B842D9D00020F3E70120F9E7BE
:1040700038B55020EFF3118480F31188BFF34F8FD0
:10408000BFF36F8F074D28680068C043C00606D491
:104090002846FEF751FF286801684068009084F3C5
:1040A000118838BD2002002038B5002019490A685F
:1040B00042F480020A60096801F480010091174C03
:1040C000154921604FF000616160A060E0604D140F
:1040D00025616061A061C914E16109022162606229
:1040E0000321A162E06220632046FDF77FF904F11D
:1040F00060004463A0632068016841F01C01016016
:1041000004F1A0012A46BDE83840A1F14000FEF7C5
:104110007DBF00003038024088640240C0010020AA
:1041200010B5FCF75FFEFFF7BFFFBDE81040AFF32F
:10413000008010B5002207214420FEF7C1FB442077
:10414000FEF7B3FB002208212520FEF7B9FBBDE8EE
:1041500010402520FEF7A9BBFEE700000FB4054B79
:1041600010B503A9044A029800F02CF810BC5DF8C1
:1041700014FB000011700008BC0100200FB4084BB4
:1041800010B504A902AA039800F01CF8044602A97D
:10419000002000F042FA204610BC5DF814FB00003D
:1041A0001B46000802E008C8121F08C1002AFAD105
:1041B00070477047002001E001C1121F002AFBD1A7
:1041C000704700002DE9FF4F8DB00F4605460026D1
:1041D00006E025280BD0DDE90F1290476D1C761CF8
:1041E00028780028F5D111B03046BDE8F08F0024C2
:1041F000A246A1460122E94900E0044315F8013F27
:10420000203B02FA03F00842F7D128782A2810D080
:104210006FF02F022878A0F13001092914D80AEB99
:104220008A0102EB410144F0020400EB010A6D1C1B
:10423000F0E701CF5FEA000A03D544F40054CAF165
:10424000000A44F002046D1C28782E2817D115F8B6
:10425000010F44F004042A280ED06FF02F022878B2
:10426000A0F1300109290AD809EB890102EB4101CB
:1042700000EB01096D1CF2E757F8049B6D1C2878D0
:104280006C280FD006DC4C2817D068280DD06A287F
:1042900014D104E0742810D07A280FD10DE044F432
:1042A00000140AE044F4801401E044F440146978F6
:1042B000814202D104F580146D1C6D1C28786E2893
:1042C0001ED00CDC632830D004DC00288BD05828AA
:1042D00011D19FE0642867D069280CD164E073286D
:1042E0002DD004DC6F2872D0702804D194E075289A
:1042F0006ED078286DD0DDE90F129047761C4BE127
:10430000C4F30250022806D0032809D0042801CFA4
:1043100009D0066040E101CFF117C0E900613BE13F
:1043200001CF068038E1067036E117F8040B8DF8EE
:10433000000000208DF80100EB46012003E057F853
:1043400004BB4FF0FF3061074FF0000102D40DE0D5
:1043500008F10101884649450FDA8045F8DB1BF872
:1043600008100029F4D108E008F1010188468142D3
:10437000FADB1BF808100029F6D1DDE90F23AAEBC0
:1043800008008146214600F031F9304400EB080670
:1043900004E0DDE90F121BF8010B9047B8F10108AA
:1043A000F7D221464846F2E00A21C4F302524FF008
:1043B000000B0891022A04D001CFC117032A09D0AB
:1043C0000AE0FF1D27F00707F7E8020108E02CE0EC
:1043D0001EE01FE000B2C117042A01D140B2C1178C
:1043E000021E71F1000206DA0023D0EB030063EB3A
:1043F00001012D2202E0220504D52B228DF8242074
:10440000012203E0E20701D02022F7E7904653E0C3
:104410000A210BE0102109E010214FF0000B44F0BD
:1044200004044FF00809089103E008214FF0000B45
:104430000891C4F30252022A04D001CF0021032ABA
:1044400006D006E0FF1D27F00707F7E8020103E0AA
:1044500080B2042A00D1C0B24FF0000822072BD549
:104460002A78702A07D0DDF820C08CF0100C5CEAA6
:104470000B0C05D00EE040228DF82420012208E02C
:1044800050EA010306D030238DF824308DF8252022
:1044900002229046089B83F0080353EA0B030BD1DA
:1044A00050EA010201D1620706D530228DF824209E
:1044B0004FF00108A9F101092A78582A04D038A23E
:1044C0000B9208AA0A920BE03AA2F9E75B46089A17
:1044D000FBF7DAFE0B9B9B5C0A9A521E0A92137042
:1044E00050EA0102F2D10A98ADEB000000F1200B76
:1044F000600702D524F4803401E04FF00109D9456A
:1045000002DDA9EB0B0000E0002000EB0B014144B1
:104510000890AAEB010AE00306D4DDE90F23214647
:10452000504600F063F806444FF0000908E009A97E
:1045300011F80900DDE90F12904709F10109761C15
:10454000C145F4DBE0030CD5DDE90F2321465046DD
:1045500000F04CF8064404E0DDE90F1230209047EB
:10456000761C0899481E08900029F5DC08E00A9896
:104570000A990078491C0A91DDE90F129047761CD0
:10458000BBF10001ABF1010BF1DC21465046DDE946
:104590000F2300F019F806446D1C21E609280100DC
:1045A00030313233343536373839616263646566A9
:1045B000000000003031323334353637383941426B
:1045C00043444546000000002DE9F0410446002523
:1045D0001E461746880404D405E039462020B0471B
:1045E0006D1C641EF9D52846BDE8F0812DE9F04127
:1045F000044600251E469046C80301D5302700E03A
:104600002027880404D505E041463846B0476D1C94
:10461000641EF9D52846BDE8F0810A68531C0B607A
:1046200010707047A4B020224DA11BA8FBF76BFEB1
:10463000202253A113A8FBF766FE202258A10BA845
:10464000FBF761FE20225EA103A8FBF75CFE644C31
:104650002089E188CDE90010A3886288218861A0C3
:10466000FFF77CFD00221146102005F01BF8606169
:10467000002846D02178A3780A06267942EA034525
:1046800045EA0621A77905F47F0541EA070C4FEAC0
:104690000C6C89B24CEA012141EA1525D9B242EAF3
:1046A0000141F2B241EA0221FAB2114345EA116135
:1046B0002391228923A904F0F1FE401C2BD052A0A3
:1046C000FFF74CFD54A0FFF749FD4FF0FF360025E2
:1046D000314601200CF03EF880B20028F8D0FFF7F8
:1046E00037F9002834D001282AD00A2820D00B28F6
:1046F000EED10095002320221BA9606905F0C4F9C2
:10470000E6E741A0FFF72AFD4BA0FFF727FD0A20AF
:104710000CF03AFAA6E73CA0FFF720FD4CA0FFF70B
:104720001DFD606904F090FE0A200CF02DFA99E757
:10473000009500231F2213A9606905F0A5F9C7E7BA
:10474000009500231F220BA9606905F09DF9BFE7C2
:10475000009500231E2203A9606905F095F9B7E7CB
:10476000496E7075743120697320686967682C49D7
:104770006E7075743220697320686967682E0A004C
:10478000496E7075743120697320686967682C49B7
:104790006E70757432206973206C6F772E0A00007A
:1047A000496E70757431206973206C6F772C496E77
:1047B0007075743220697320686967682E0A00007A
:1047C000496E70757431206973206C6F772C496E57
:1047D00070757432206973206C6F772E0A000000A8
:1047E0001C000020C4BFB5D84950B5D8D6B73A256B
:1047F000642E25642E25642E2564200920B6CBBFA7
:10480000DABAC53A25640A000D0A5B4445425547A9
:104810005D203E3E20000000436F6E6E6563742095
:10482000746F207365727665722073756363657348
:104830007366756C210A000063726561746520639C
:104840006F6E6E206661696C6564210A000000006D
:10485000436F6E6E656374206661696C6564210ADE
:104860000000000008B50420C301009000220349A5
:1048700003A007F00DF90449C86008BD25460008EB
:10488000636C69656E7400001C0000202DE9F04324
:104890009BB029A62AA70FF2B0080FF2B4092E4C3C
:1048A0002E4D40E01A9800684289416801A8FBF744
:1048B0005CFD0422314601A8FBF770FD90B1042293
:1048C000394601A8FBF76AFD88B10422414601A8D8
:1048D000FBF764FD80B10522494601A8FBF75EFDA8
:1048E00078B114E0206880F0400020600FE020687C
:1048F00080F0800020600AE0206880F480702060F2
:1049000005E0002302221946E8680CF0EBFF642161
:1049100001A8FBF71FFD1A9804F012FD0028C1DA68
:104920001A9804F0FBFC1AA9686904F03BFF002800
:10493000B8D01BB0BDE8F0834C4544310000000006
:104940004C454432000000004C4544330000000058
:104950007175657279000000141402401C0000207B
:1049600008B50420C30100900022034903A007F00A
:104970008FF80549086108BD8D480008636C6965BA
:104980006E747265637600001C0000202DE9F0470C
:104990000446294DAB680020D5F80C8000272E4630
:1049A00095F801A096F80290D6E9045605EB060C9E
:1049B000BAF1000F13D0B9F1000F10D11F4E012032
:1049C000D6F818A0C4F800A07669361FAE4206D308
:1049D000B44504D3012902D9022066600127B9F148
:1049E000000F08D09A4201D21A4604E003EB0806F1
:1049F000964200D2324603EB080618E013681B1FEC
:104A00005FEAC37812D0AB4210D39C450ED3102876
:104A10000CD288420AD2022804D11FB1D4F80480F3
:104A2000984503D08046401C44F82830121D964219
:104A3000E4D8BDE8F0870000A4010020C4BD012037
:104A40002DE9F0478EB006460C4620225C4906A8A8
:104A5000FBF759FC5B4FBD68D7F80C90387858B11C
:104A6000787898B1564A58A1143A5AA0FFF776FBC5
:104A700060A0FFF773FBFEE7514A5FA1143A55A00F
:104A8000FFF76CFB5BA0FFF769FBFEE74FF0010A45
:104A900087F801A05AA0FFF761FB56A0FFF75EFB65
:104AA00000F0EAF8DFF81881A8F1BC08D8F828006F
:104AB000FFF754FB4FA0FFF751FB04F120013046F4
:104AC00006F088FE0646AE4203D305EB0900B0426D
:104AD00001D287F802A032464946284601F008FB79
:104AE000B878484D00283FD1D8F82C00FFF736FBA6
:104AF00040A0FFF733FB27682F6060686860A168FB
:104B0000A960E268EA6023692B6163696B61A3694C
:104B1000AB61E369EB61DDE90843CDE90141CDE932
:104B20000332DDE9061300903A4637A0FFF716FB83
:104B300030A0FFF713FBAA69E8690D990C9BCDE93A
:104B40000132CDE90310686900900B9B2A692EA001
:104B50000A99FFF703FB27A0FFF700FB35A0FFF73B
:104B6000FDFA24A0FFF7FAFA4248006845F8200F42
:104B70004048001D007828713E4810300068A86049
:104B80003C48401D007828733A481430006828617A
:104B90003848801D0088A882364808300068A8611F
:104BA00034480C300088E8613248183000882862A8
:104BB00002F00EF9304605F03FFF0EB0BDE8F08779
:104BC000BC200108A4010020216F6E5F6661756C36
:104BD00074000000282573292068617320617373B5
:104BE000657274206661696C656420617420257348
:104BF0002E0000000D0A0000696E69745F6F6B0083
:104C000000000000C4BD0120202025733A2025307B
:104C10003878202025733A202530387820202573D5
:104C20003A2025303878202025733A2025303878EE
:104C3000000000003D3D3D3D3D3D3D3D3D3D3D3D98
:104C40003D3D3D3D3D3D3D3D3D3D3D3D3D3D3D3D94
:104C50003D3D3D3D3D3D3D3D3D3D3D3D3D3D3D3D84
:104C60003D3D3D3D3D3D3D3D3D3D3D3D3D3D3D3D74
:104C70003D3D000024ED00E010B50748074BA3F1CF
:104C800020020068A2F12001FFF768FABDE8104099
:104C900003A0FFF763BA00000020010814BD012043
:104CA0000D0A000070B50D461446014620220E483C
:104CB000FBF75BFB0C48202229462030FBF755FB15
:104CC0000948202221464030FBF74FFB084807499E
:104CD0008160084A511AC16007490161074A511AA7
:104CE00041610121017070BDD4BC012008BE0120CA
:104CF000A401002008C2012000000008482B010880
:104D000000280BD0026A002A0BD05379082B08D157
:104D10000968D269914204D100F0CCB901A0FFF733
:104D20001DBA70476E6574696620213D204E554C52
:104D30004C0000002DE9FC410546002D18D02C6ADE
:104D4000DCB100276782A36A4FF03C02581C4FF485
:104D500080384FF0010C4FF6FF7614D01E33B3FBB2
:104D6000F2F0404500D3304683B2A3824BB10AE053
:104D70002BA0FFF7F3F9BDE8FC8130A0FFF7EEF9B7
:104D8000F9E7A4F814C0E36A581C0CD01E33B3FB37
:104D9000F2F1414500D331468BB263810BB9A4F8DF
:104DA0000AC06089E081236B581C0CD01E33B3FB12
:104DB000F2F2424500D3324693B2A3810BB9A4F874
:104DC0000CC0A08920826089A389984201D303B1D5
:104DD0006781E07910B1206A01900CE0237F7F2B7E
:104DE00002D8FF20019006E0C02B03D36FF07F4074
:104DF000019000E00196606A009028B9E06901998D
:104E0000084040F0807000900A21204601F038F8F8
:104E10006B4601AA04F11C01284605F023F8AAE715
:104E2000646863705F62696E643A206E6574696677
:104E300020213D204E554C4C0000000064686370FA
:104E40005F62696E643A206468637020213D204E81
:104E5000554C4C0070B505462C6A0821204601F0DF
:104E60000FF8002204F11C01284601F0C3FCA079D0
:104E7000FF2801D2401CA0714FF4FA7040F2E731D4
:104E8000B1FBF0F0208170BD10B51748046828E030
:104E9000216A09B34879F8B1888A68B1488A401C08
:104EA00080B248828A8A904206D1204600F064FE91
:104EB000204600F0EDFF13E0088A18B1421E0A8276
:104EC000012806D0C88938B1421ECA81012804D001
:104ED00006E0204601F066F802E0204601F04DF8B9
:104EE0002468002CD4D110BD000100202DE9F0472A
:104EF00007460C4616469946002F17D0002C1BD0AB
:104F00004FF49A7A4FF420725146362005F060F83B
:104F100080465FEA080014D0B8F80A00504502D273
:104F20002EA0FFF71BF9032E10D10CE03BA0FFF7DA
:104F300015F90020BDE8F08740A0FFF70FF9002029
:104F4000F8E70020F6E76079032807D1A179434804
:104F500011B94168491C416040682060D8F804508C
:104F600051462846FBF7F6F901202870687097F83B
:104F70002C00A870206803F039F96860082E0AD068
:104F8000042E08D0072E06D0032E06D160790528FE
:104F900001D0042801D17868E86000243819291963
:104FA00090F826000877641CA4B2062CF6D32C488F
:104FB000C5F8EC0005F1F001012335220C46002074
:104FC00000F0FAF93246214600F00EFAB9F1000F6E
:104FD00001D0A9F800004046ACE7000064686370A7
:104FE0005F6372656174655F6D73673A20636865BE
:104FF000636B2074686174206669727374207062D8
:1050000075662063616E20686F6C642073747275BE
:10501000637420646863705F6D73670064686370B5
:105020005F6372656174655F6D73673A206E657466
:10503000696620213D204E554C4C00006468637029
:105040005F6372656174655F6D73673A206468635E
:105050007020213D204E554C4C0000006001002086
:105060006382536310B5094C2078002802D108A050
:10507000FFF774F82078401EC0B22070002804D1D9
:10508000A0680BF0DFF90020A06010BD60010020D7
:10509000646863705F7063625F726566636F756E8C
:1050A0007428293A20726566636F756E7420657284
:1050B000726F7200FEB50646346A0C21204600F07D
:1050C000DFFE02AB042221463046FFF70FFF054604
:1050D000280026D069680423F03132220F46BDF83B
:1050E000080000F069F90290E06903F07FF80246D9
:1050F0003946BDF8080000F0A1F902902A46394669
:1051000000F004FA0F484323CDE900600F480E4A2F
:10511000294680680BF02CFA0646284605F026FA48
:1051200001E04FF0FF36A079FF2801D2401CA071AA
:1051300042F603104FF4FA71B0FBF1F020813046D3
:10514000FEBD0000EC1F0108F01F010860010020F7
:105150002DE9FE4F07463D6A4FF000090020E86147
:105160000621284600F08CFE02AB01222946384673
:10517000FFF7BCFE0646300037D071680223F031DD
:1051800039228A46BDF8080000F016F90290BA8C60
:10519000514600F08BF9029003233722514600F06C
:1051A0000BF902900024DFF880805146BDF808001A
:1051B00018F8042000F018F90290641CE4B2032CE3
:1051C000F3D332465146BDF8080000F09FF9174866
:1051D0004323CDE900701448154A401E31468068CB
:1051E0000BF0C6F9304605F0C1F9A879FF2801D2C5
:1051F000401CA871A979062902D20120884000E04C
:105200003C2000EB4001C1EBC0104FF6FF7101EAFA
:10521000C00000F2F3104FF4FA71B0FBF1F02881F6
:105220004846BDE8FE8F000061010020EC1F010828
:10523000F01F010870B50B48046800250EE0216AD4
:1052400059B10889012803D9A0F10100088104E0BF
:1052500003D10D81204600F0BCFE2468002CEED165
:1052600070BD00000001002070B5046A00222262B7
:105270006262164E164DF078002801D0E868A062F0
:10528000307910B12869E06202E0A06A4008E0626B
:10529000707910B16869206304E0A06AC0EBC000B7
:1052A000C00820630869E061B07930B1A86902F0F4
:1052B0009DFF20620120E07100E0E271F07900289A
:1052C00003D0E86902F092FF606270BD6C010020BB
:1052D00070BB012010B50446206A0C2100F0D0FDFF
:1052E000054B20461A46114604F0BCFD2046BDE899
:1052F0001040FFF72DBF0000EC1F010870B50546F8
:105300000E462C6A0948807800280DD000202081A4
:105310000748806802F06AFFA0613069E0612846B2
:10532000BDE8704000F0EEBC70BD00006C010020D4
:1053300070BB012010B5134C207800281AD1A0684A
:1053400010B111A0FEF70AFF0BF034F8A060B0B165
:10535000417A41F020014172442215490AF036FE9B
:1053600043221349A0680AF085FE00221149A06873
:105370000BF054F82078401C2070002010BD4FF036
:10538000FF3010BD60010020646863705F696E6368
:105390005F7063625F726566636F756E7428293A29
:1053A000206D656D6F7279206C65616B0000000087
:1053B000EC1F01087D5A00082DE9F04104460E4615
:1053C00090461F46E019801C442802D90548FEF784
:1053D000C5FE601C85B206F80480681C80B2775553
:1053E000BDE8F0818822010870B504460E461546D6
:1053F000442C02D303A0FEF7B1FE601C80B23555E9
:1054000070BD0000646863705F6F7074696F6E5F79
:10541000627974653A206F7074696F6E735F6F752F
:10542000745F6C656E203C20444843505F4F50547D
:10543000494F4E535F4C454E0000000070B5064684
:105440000D461446301D442802D909A0FEF786FEF9
:10545000220E701C81B2AA55220C481C80B26A54DC
:10546000220A411C89B22A54481C80B26C5470BD77
:10547000646863705F6F7074696F6E5F6C6F6E6786
:105480003A206F7074696F6E735F6F75745F6C65CF
:105490006E202B2034203C3D20444843505F4F5029
:1054A00054494F4E535F4C454E00000070B50446C2
:1054B0000E461546A01C442802D905A0FEF74EFE54
:1054C000290A601C83B23155581C80B2F55470BD56
:1054D000646863705F6F7074696F6E5F73686F721A
:1054E000743A206F7074696F6E735F6F75745F6C60
:1054F000656E202B2032203C3D20444843505F4FB6
:105500005054494F4E535F4C454E000030B4044652
:105510001046FF25621C93B20D55002403E01D4682
:105520005B1C9BB24C55442B01D39D0701D0442BEF
:10553000F5D3F03330BC99B205F0AAB82DE9F34F9A
:1055400085B0002004900390B249C86008610598B6
:1055500040892C2804D26FF0010007B0BDE8F08F1D
:105560004FF0F0080598B0F808A0059E08E0A8EBF9
:1055700000011FFA81F8AAEB00001FFA80FA3668D2
:1055800016B170894045F2D91EB14746D6F804B02D
:1055900003E16FF00100E0E74FF0FF34B81C1FFAA1
:1055A00080F9B94501D26000D7E77389781C0246BB
:1055B000834203D90BEB0700407805E0306810B157
:1055C0004068007800E00020054634293DD007DC23
:1055D000C9B101291AD0032922D0332908D12AE0E0
:1055E000352945D036294DD03A2955D03B295DD0B3
:1055F0000025002964D03844801CB0F5803F61D379
:105600006FF00100A9E700200546F2E7042805D065
:1056100081A0FEF7A3FD6FF005009EE70624E8E7F2
:105620000425042805D27FA0FEF798FD6FF0050041
:1056300093E70724DDE7042805D077A0FEF78EFD69
:105640006FF0050089E70324D3E7012805D07AA08D
:10565000FEF784FD6FF005007FE7B8F1F00F05D08D
:1056600078A0FEF77BFD6FF0050076E70024C0E729
:10567000012805D070A0FEF771FD6FF005006CE702
:105680000124B6E7042805D063A0FEF767FD6FF09C
:10569000050062E70224ACE7042805D05EA0FEF70F
:1056A0005DFD6FF0050058E70424A2E7042805D04B
:1056B00059A0FEF753FD6FF005004EE7052498E76B
:1056C00097B25BE087B2DDB300200290082C02D3D2
:1056D00062A0FEF743FD4F480C30005D80BB042DF7
:1056E00001D2284600E0042001904B4602A9304632
:1056F000019A04F0DDFE01460198814202D06FF06C
:1057000001002AE7042D1FD9A80705D058A0FEF7ED
:1057100025FD6FF0050020E73E4901200C310855BA
:10572000029802F063FD584941F824002D1FEDB2A4
:1057300009F1040080B2484503D26FF001000CE784
:105740001CE08146641CC1E7042D07D0012D0AD05E
:105750004EA0FEF703FD6FF00500FEE6029802F092
:1057600045FD029002E09DF80800029029480121C1
:105770000C3001554448029940F824107089B84211
:105780000BD8391A8FB2AAEB00001FFA80FA5745DE
:1057900020D23668C6B1D6F804B036B1574504D227
:1057A0001BF80710FF297FF4F7AE1A490C3108786F
:1057B000E0B13548006800220A7001280DD00228A7
:1057C0000ED003280FD011E035A0FEF7C7FC6FF014
:1057D0000500C2E66FF00100BFE60120049005E07D
:1057E0000120039002E0012003900490049830B15E
:1057F000002004904FF06C084FF0EC0AB5E60398D7
:1058000030B1002003904FF02C084FF06C0AACE64A
:105810000020A2E6600100206C656E203D3D203432
:10582000000000006C656E203E3D206465636F647F
:10583000655F6C656E0000006C656E203D3D20313B
:10584000000000006F7665726C6F616420696E20E5
:1058500066696C652F736E616D65000063686563D2
:105860006B206465636F64655F69647800000000A5
:105870006465636F64655F6C656E20252520342048
:105880003D3D20300000000070BB0120696E766154
:105890006C6964206465636F64655F6C656E0000AD
:1058A0006E657874207062756620776173206E75FE
:1058B0006C6C00002DE9FC478046D8F8205004218C
:1058C000284600F0DDFA01AB032229464046FFF7E7
:1058D0000DFB0746380037D079680223F0313922B2
:1058E0008946BDF80400FFF767FD0190B8F8242051
:1058F0004946FFF7DBFD0190032337224946FFF7B6
:105900005BFD019000241E4E4946BDF80400325D47
:10591000FFF76AFD0190641CE4B2032CF4D33A460D
:105920004946BDF80400FFF7F1FD1548CDF80080A9
:10593000401E4323134A394680680AF0ABFD0446F3
:10594000384604F013FE01E04FF0FF34A879FF2839
:1059500001D2401CA871A8790A2803D24FF47A71A9
:10596000484301E042F2107080B200F2F3104FF4AD
:10597000FA71B0FBF1F028812046BDE8FC870000F9
:1059800061010020F01F01082DE9FC478046D8F88E
:1059900020500321284600F073FA01AB0322294668
:1059A0004046FFF7A3FA0746380047D0796802233C
:1059B000F03139228946BDF80400FFF7FDFC019063
:1059C0004FF410724946FFF771FD01900423322213
:1059D0004946FFF7F1FC0190E86902F007FC024636
:1059E0004946BDF80400FFF729FD01900323372243
:1059F0004946FFF7E1FC019000241E4E4946BDF8E0
:105A00000400325DFFF7F0FC0190641CE4B2032C4B
:105A1000F4D33A464946BDF80400FFF777FD154830
:105A2000CDF80080401E4323134A394680680AF0AF
:105A300031FD0446384604F099FD01E04FF0FF3493
:105A4000A879FF2801D2401CA871A8790A2803D29E
:105A50004FF47A71484301E042F2107080B200F2D4
:105A6000F3104FF4FA71B0FBF1F028812046BDE845
:105A7000FC87000061010020F01F01082DE9F041C2
:105A800016463A4845682C6A7168002C68D020791F
:105A9000002865D070892C2862D3087802285FD14D
:105AA000002095F82C2008E02B180F1893F82630CA
:105AB0003F7FBB4254D1401CC0B2824201D906286C
:105AC000F2D3486802F092FB2168884248D121460F
:105AD0003046FFF733FDF8B925484078E0B17268E9
